{
  "_format": "hh3-artifact-1",
  "contractName": "LBJMembership",
  "sourceName": "contracts/LBJMembership.sol",
  "abi": [
    {
      "inputs": [
        {
          "internalType": "address",
          "name": "initialOwner",
          "type": "address"
        }
      ],
      "stateMutability": "nonpayable",
      "type": "constructor"
    },
    {
      "inputs": [
        {
          "internalType": "address",
          "name": "sender",
          "type": "address"
        },
        {
          "internalType": "uint256",
          "name": "tokenId",
          "type": "uint256"
        },
        {
          "internalType": "address",
          "name": "owner",
          "type": "address"
        }
      ],
      "name": "ERC721IncorrectOwner",
      "type": "error"
    },
    {
      "inputs": [
        {
          "internalType": "address",
          "name": "operator",
          "type": "address"
        },
        {
          "internalType": "uint256",
          "name": "tokenId",
          "type": "uint256"
        }
      ],
      "name": "ERC721InsufficientApproval",
      "type": "error"
    },
    {
      "inputs": [
        {
          "internalType": "address",
          "name": "approver",
          "type": "address"
        }
      ],
      "name": "ERC721InvalidApprover",
      "type": "error"
    },
    {
      "inputs": [
        {
          "internalType": "address",
          "name": "operator",
          "type": "address"
        }
      ],
      "name": "ERC721InvalidOperator",
      "type": "error"
    },
    {
      "inputs": [
        {
          "internalType": "address",
          "name": "owner",
          "type": "address"
        }
      ],
      "name": "ERC721InvalidOwner",
      "type": "error"
    },
    {
      "inputs": [
        {
          "internalType": "address",
          "name": "receiver",
          "type": "address"
        }
      ],
      "name": "ERC721InvalidReceiver",
      "type": "error"
    },
    {
      "inputs": [
        {
          "internalType": "address",
          "name": "sender",
          "type": "address"
        }
      ],
      "name": "ERC721InvalidSender",
      "type": "error"
    },
    {
      "inputs": [
        {
          "internalType": "uint256",
          "name": "tokenId",
          "type": "uint256"
        }
      ],
      "name": "ERC721NonexistentToken",
      "type": "error"
    },
    {
      "inputs": [
        {
          "internalType": "address",
          "name": "owner",
          "type": "address"
        }
      ],
      "name": "OwnableInvalidOwner",
      "type": "error"
    },
    {
      "inputs": [
        {
          "internalType": "address",
          "name": "account",
          "type": "address"
        }
      ],
      "name": "OwnableUnauthorizedAccount",
      "type": "error"
    },
    {
      "anonymous": false,
      "inputs": [
        {
          "indexed": true,
          "internalType": "address",
          "name": "owner",
          "type": "address"
        },
        {
          "indexed": true,
          "internalType": "address",
          "name": "approved",
          "type": "address"
        },
        {
          "indexed": true,
          "internalType": "uint256",
          "name": "tokenId",
          "type": "uint256"
        }
      ],
      "name": "Approval",
      "type": "event"
    },
    {
      "anonymous": false,
      "inputs": [
        {
          "indexed": true,
          "internalType": "address",
          "name": "owner",
          "type": "address"
        },
        {
          "indexed": true,
          "internalType": "address",
          "name": "operator",
          "type": "address"
        },
        {
          "indexed": false,
          "internalType": "bool",
          "name": "approved",
          "type": "bool"
        }
      ],
      "name": "ApprovalForAll",
      "type": "event"
    },
    {
      "anonymous": false,
      "inputs": [
        {
          "indexed": true,
          "internalType": "address",
          "name": "previousOwner",
          "type": "address"
        },
        {
          "indexed": true,
          "internalType": "address",
          "name": "newOwner",
          "type": "address"
        }
      ],
      "name": "OwnershipTransferred",
      "type": "event"
    },
    {
      "anonymous": false,
      "inputs": [
        {
          "indexed": true,
          "internalType": "address",
          "name": "from",
          "type": "address"
        },
        {
          "indexed": true,
          "internalType": "address",
          "name": "to",
          "type": "address"
        },
        {
          "indexed": true,
          "internalType": "uint256",
          "name": "tokenId",
          "type": "uint256"
        }
      ],
      "name": "Transfer",
      "type": "event"
    },
    {
      "inputs": [
        {
          "internalType": "address",
          "name": "to",
          "type": "address"
        },
        {
          "internalType": "uint256",
          "name": "tokenId",
          "type": "uint256"
        }
      ],
      "name": "approve",
      "outputs": [],
      "stateMutability": "nonpayable",
      "type": "function"
    },
    {
      "inputs": [
        {
          "internalType": "address",
          "name": "owner",
          "type": "address"
        }
      ],
      "name": "balanceOf",
      "outputs": [
        {
          "internalType": "uint256",
          "name": "",
          "type": "uint256"
        }
      ],
      "stateMutability": "view",
      "type": "function"
    },
    {
      "inputs": [
        {
          "internalType": "uint256",
          "name": "_tokenId",
          "type": "uint256"
        }
      ],
      "name": "buildImage",
      "outputs": [
        {
          "internalType": "string",
          "name": "",
          "type": "string"
        }
      ],
      "stateMutability": "pure",
      "type": "function"
    },
    {
      "inputs": [
        {
          "internalType": "uint256",
          "name": "tokenId",
          "type": "uint256"
        }
      ],
      "name": "getApproved",
      "outputs": [
        {
          "internalType": "address",
          "name": "",
          "type": "address"
        }
      ],
      "stateMutability": "view",
      "type": "function"
    },
    {
      "inputs": [
        {
          "internalType": "address",
          "name": "owner",
          "type": "address"
        },
        {
          "internalType": "address",
          "name": "operator",
          "type": "address"
        }
      ],
      "name": "isApprovedForAll",
      "outputs": [
        {
          "internalType": "bool",
          "name": "",
          "type": "bool"
        }
      ],
      "stateMutability": "view",
      "type": "function"
    },
    {
      "inputs": [
        {
          "internalType": "address",
          "name": "to",
          "type": "address"
        }
      ],
      "name": "mintMemberNFT",
      "outputs": [],
      "stateMutability": "nonpayable",
      "type": "function"
    },
    {
      "inputs": [],
      "name": "name",
      "outputs": [
        {
          "internalType": "string",
          "name": "",
          "type": "string"
        }
      ],
      "stateMutability": "view",
      "type": "function"
    },
    {
      "inputs": [],
      "name": "nextTokenId",
      "outputs": [
        {
          "internalType": "uint256",
          "name": "",
          "type": "uint256"
        }
      ],
      "stateMutability": "view",
      "type": "function"
    },
    {
      "inputs": [],
      "name": "owner",
      "outputs": [
        {
          "internalType": "address",
          "name": "",
          "type": "address"
        }
      ],
      "stateMutability": "view",
      "type": "function"
    },
    {
      "inputs": [
        {
          "internalType": "uint256",
          "name": "tokenId",
          "type": "uint256"
        }
      ],
      "name": "ownerOf",
      "outputs": [
        {
          "internalType": "address",
          "name": "",
          "type": "address"
        }
      ],
      "stateMutability": "view",
      "type": "function"
    },
    {
      "inputs": [],
      "name": "renounceOwnership",
      "outputs": [],
      "stateMutability": "nonpayable",
      "type": "function"
    },
    {
      "inputs": [
        {
          "internalType": "address",
          "name": "from",
          "type": "address"
        },
        {
          "internalType": "address",
          "name": "to",
          "type": "address"
        },
        {
          "internalType": "uint256",
          "name": "tokenId",
          "type": "uint256"
        }
      ],
      "name": "safeTransferFrom",
      "outputs": [],
      "stateMutability": "nonpayable",
      "type": "function"
    },
    {
      "inputs": [
        {
          "internalType": "address",
          "name": "from",
          "type": "address"
        },
        {
          "internalType": "address",
          "name": "to",
          "type": "address"
        },
        {
          "internalType": "uint256",
          "name": "tokenId",
          "type": "uint256"
        },
        {
          "internalType": "bytes",
          "name": "data",
          "type": "bytes"
        }
      ],
      "name": "safeTransferFrom",
      "outputs": [],
      "stateMutability": "nonpayable",
      "type": "function"
    },
    {
      "inputs": [
        {
          "internalType": "address",
          "name": "operator",
          "type": "address"
        },
        {
          "internalType": "bool",
          "name": "approved",
          "type": "bool"
        }
      ],
      "name": "setApprovalForAll",
      "outputs": [],
      "stateMutability": "nonpayable",
      "type": "function"
    },
    {
      "inputs": [
        {
          "internalType": "bytes4",
          "name": "interfaceId",
          "type": "bytes4"
        }
      ],
      "name": "supportsInterface",
      "outputs": [
        {
          "internalType": "bool",
          "name": "",
          "type": "bool"
        }
      ],
      "stateMutability": "view",
      "type": "function"
    },
    {
      "inputs": [],
      "name": "symbol",
      "outputs": [
        {
          "internalType": "string",
          "name": "",
          "type": "string"
        }
      ],
      "stateMutability": "view",
      "type": "function"
    },
    {
      "inputs": [
        {
          "internalType": "uint256",
          "name": "_tokenId",
          "type": "uint256"
        }
      ],
      "name": "tokenURI",
      "outputs": [
        {
          "internalType": "string",
          "name": "",
          "type": "string"
        }
      ],
      "stateMutability": "view",
      "type": "function"
    },
    {
      "inputs": [
        {
          "internalType": "address",
          "name": "from",
          "type": "address"
        },
        {
          "internalType": "address",
          "name": "to",
          "type": "address"
        },
        {
          "internalType": "uint256",
          "name": "tokenId",
          "type": "uint256"
        }
      ],
      "name": "transferFrom",
      "outputs": [],
      "stateMutability": "nonpayable",
      "type": "function"
    },
    {
      "inputs": [
        {
          "internalType": "address",
          "name": "newOwner",
          "type": "address"
        }
      ],
      "name": "transferOwnership",
      "outputs": [],
      "stateMutability": "nonpayable",
      "type": "function"
    }
  ],
  "bytecode": "0x608060405234801562000010575f80fd5b50604051620019ff380380620019ff833981016040819052620000339162000128565b806040518060400160405280600a8152602001692621251026b2b6b132b960b11b815250604051806040016040528060048152602001634c424a4d60e01b815250815f9081620000849190620001f5565b506001620000938282620001f5565b5050506001600160a01b038116620000c457604051631e4fbdf760e01b81525f600482015260240160405180910390fd5b620000cf81620000d7565b5050620002c1565b600680546001600160a01b038381166001600160a01b0319831681179093556040519116919082907f8be0079c531659141344cd1fd0a4f28419497f9722a3daafe3b4186f6b6457e0905f90a35050565b5f6020828403121562000139575f80fd5b81516001600160a01b038116811462000150575f80fd5b9392505050565b634e487b7160e01b5f52604160045260245ffd5b600181811c908216806200018057607f821691505b6020821081036200019f57634e487b7160e01b5f52602260045260245ffd5b50919050565b601f821115620001f057805f5260205f20601f840160051c81016020851015620001cc5750805b601f840160051c820191505b81811015620001ed575f8155600101620001d8565b50505b505050565b81516001600160401b0381111562000211576200021162000157565b62000229816200022284546200016b565b84620001a5565b602080601f8311600181146200025f575f8415620002475750858301515b5f19600386901b1c1916600185901b178555620002b9565b5f85815260208120601f198616915b828110156200028f578886015182559484019460019091019084016200026e565b5085821015620002ad57878501515f19600388901b60f8161c191681555b505060018460011b0185555b505050505050565b61173080620002cf5f395ff3fe608060405234801561000f575f80fd5b506004361061011c575f3560e01c806370a08231116100a9578063a22cb4651161006e578063a22cb46514610247578063b88d4fde1461025a578063c87b56dd1461026d578063e985e9c514610280578063f2fde38b14610293575f80fd5b806370a08231146101fc578063715018a61461021d57806375794a3c146102255780638da5cb5b1461022e57806395d89b411461023f575f80fd5b80630aa38172116100ef5780630aa381721461019d57806323b872dd146101b05780632ba80eba146101c357806342842e0e146101d65780636352211e146101e9575f80fd5b806301ffc9a71461012057806306fdde0314610148578063081812fc1461015d578063095ea7b314610188575b5f80fd5b61013361012e366004610f49565b6102a6565b60405190151581526020015b60405180910390f35b6101506102f7565b60405161013f9190610fb8565b61017061016b366004610fca565b610386565b6040516001600160a01b03909116815260200161013f565b61019b610196366004610ffc565b6103ad565b005b61019b6101ab366004611024565b6103bc565b61019b6101be36600461103d565b6103e7565b6101506101d1366004610fca565b610475565b61019b6101e436600461103d565b6104a6565b6101706101f7366004610fca565b6104c5565b61020f61020a366004611024565b6104cf565b60405190815260200161013f565b61019b610514565b61020f60075481565b6006546001600160a01b0316610170565b610150610527565b61019b610255366004611076565b610536565b61019b6102683660046110c3565b610541565b61015061027b366004610fca565b610559565b61013361028e366004611198565b6105d7565b61019b6102a1366004611024565b610604565b5f6001600160e01b031982166380ac58cd60e01b14806102d657506001600160e01b03198216635b5e139f60e01b145b806102f157506301ffc9a760e01b6001600160e01b03198316145b92915050565b60605f8054610305906111c9565b80601f0160208091040260200160405190810160405280929190818152602001828054610331906111c9565b801561037c5780601f106103535761010080835404028352916020019161037c565b820191905f5260205f20905b81548152906001019060200180831161035f57829003601f168201915b5050505050905090565b5f61039082610641565b505f828152600460205260409020546001600160a01b03166102f1565b6103b8828233610679565b5050565b6103c4610686565b6103d0816007546106b3565b60078054905f6103df83611215565b919050555050565b6001600160a01b03821661041557604051633250574960e11b81525f60048201526024015b60405180910390fd5b5f6104218383336106cc565b9050836001600160a01b0316816001600160a01b03161461046f576040516364283d7b60e01b81526001600160a01b038086166004830152602482018490528216604482015260640161040c565b50505050565b6060610480826107be565b6040516020016104909190611248565b6040516020818303038152906040529050919050565b6104c083838360405180602001604052805f815250610541565b505050565b5f6102f182610641565b5f6001600160a01b0382166104f9576040516322718ad960e21b81525f600482015260240161040c565b506001600160a01b03165f9081526003602052604090205490565b61051c610686565b6105255f61084e565b565b606060018054610305906111c9565b6103b833838361089f565b61054c8484846103e7565b61046f3385858585610966565b606061056482610641565b505f61056f83610475565b90505f6105ac61057e856107be565b61058784610a8e565b60405160200161059892919061150e565b604051602081830303815290604052610a8e565b9050806040516020016105bf9190611616565b60405160208183030381529060405292505050919050565b6001600160a01b039182165f90815260056020908152604080832093909416825291909152205460ff1690565b61060c610686565b6001600160a01b03811661063557604051631e4fbdf760e01b81525f600482015260240161040c565b61063e8161084e565b50565b5f818152600260205260408120546001600160a01b0316806102f157604051637e27328960e01b81526004810184905260240161040c565b6104c08383836001610a9a565b6006546001600160a01b031633146105255760405163118cdaa760e01b815233600482015260240161040c565b6103b8828260405180602001604052805f815250610b9e565b5f828152600260205260408120546001600160a01b03908116908316156106f8576106f8818486610bb5565b6001600160a01b03811615610732576107135f855f80610a9a565b6001600160a01b0381165f90815260036020526040902080545f190190555b6001600160a01b03851615610760576001600160a01b0385165f908152600360205260409020805460010190555b5f8481526002602052604080822080546001600160a01b0319166001600160a01b0389811691821790925591518793918516917fddf252ad1be2c89b69c2b068fc378daa952ba7f163c4a11628f55a4df523b3ef91a4949350505050565b60605f6107ca83610c19565b60010190505f8167ffffffffffffffff8111156107e9576107e96110af565b6040519080825280601f01601f191660200182016040528015610813576020820181803683370190505b5090508181016020015b5f19016f181899199a1a9b1b9c1cb0b131b232b360811b600a86061a8153600a850494508461081d57509392505050565b600680546001600160a01b038381166001600160a01b0319831681179093556040519116919082907f8be0079c531659141344cd1fd0a4f28419497f9722a3daafe3b4186f6b6457e0905f90a35050565b6001600160a01b0383166108c85760405163a9fbf51f60e01b81525f600482015260240161040c565b6001600160a01b0382166108fa57604051630b61174360e31b81526001600160a01b038316600482015260240161040c565b6001600160a01b038381165f81815260056020908152604080832094871680845294825291829020805460ff191686151590811790915591519182527f17307eab39ab6107e8899845ad3d59bd9653f200f220920489ca2b5937696c31910160405180910390a3505050565b6001600160a01b0383163b15610a8757604051630a85bd0160e11b81526001600160a01b0384169063150b7a02906109a890889088908790879060040161165a565b6020604051808303815f875af19250505080156109e2575060408051601f3d908101601f191682019092526109df91810190611696565b60015b610a49573d808015610a0f576040519150601f19603f3d011682016040523d82523d5f602084013e610a14565b606091505b5080515f03610a4157604051633250574960e11b81526001600160a01b038516600482015260240161040c565b805160208201fd5b6001600160e01b03198116630a85bd0160e11b14610a8557604051633250574960e11b81526001600160a01b038516600482015260240161040c565b505b5050505050565b60606102f1825f610cf0565b8080610aae57506001600160a01b03821615155b15610b6f575f610abd84610641565b90506001600160a01b03831615801590610ae95750826001600160a01b0316816001600160a01b031614155b8015610afc5750610afa81846105d7565b155b15610b255760405163a9fbf51f60e01b81526001600160a01b038416600482015260240161040c565b8115610b6d5783856001600160a01b0316826001600160a01b03167f8c5be1e5ebec7d5bd14f71427d1e84f3dd0314c0f7b2291e5b200ac8c7c3b92560405160405180910390a45b505b50505f90815260046020526040902080546001600160a01b0319166001600160a01b0392909216919091179055565b610ba88383610e6f565b6104c0335f858585610966565b610bc0838383610ed0565b6104c0576001600160a01b038316610bee57604051637e27328960e01b81526004810182905260240161040c565b60405163177e802f60e01b81526001600160a01b03831660048201526024810182905260440161040c565b5f8072184f03e93ff9f4daa797ed6e38ed64bf6a1f0160401b8310610c575772184f03e93ff9f4daa797ed6e38ed64bf6a1f0160401b830492506040015b6d04ee2d6d415b85acef81000000008310610c83576d04ee2d6d415b85acef8100000000830492506020015b662386f26fc100008310610ca157662386f26fc10000830492506010015b6305f5e1008310610cb9576305f5e100830492506008015b6127108310610ccd57612710830492506004015b60648310610cdf576064830492506002015b600a83106102f15760010192915050565b606082515f03610d0e575060408051602081019091525f81526102f1565b5f82610d3e57600384516002610d2491906116b1565b610d2e91906116c4565b610d399060046116e3565b610d63565b600384516004610d4e91906116e3565b610d599060026116b1565b610d6391906116c4565b905060405191507f4142434445464748494a4b4c4d4e4f505152535455565758595a616263646566601f5261067083027f6768696a6b6c6d6e6f707172737475767778797a303132333435363738392b2f18603f526020820181810185865187016020810180515f82525b82841015610e21576003840193508351603f8160121c16518753600187019650603f81600c1c16518753600187019650603f8160061c16518753600187019650603f811651875350600186019550610dce565b905250859050610e6257600386510660018114610e455760028114610e5857610e60565b603d6001840353603d6002840353610e60565b603d60018403535b505b9183525060405292915050565b6001600160a01b038216610e9857604051633250574960e11b81525f600482015260240161040c565b5f610ea483835f6106cc565b90506001600160a01b038116156104c0576040516339e3563760e11b81525f600482015260240161040c565b5f6001600160a01b03831615801590610f2c5750826001600160a01b0316846001600160a01b03161480610f095750610f0984846105d7565b80610f2c57505f828152600460205260409020546001600160a01b038481169116145b949350505050565b6001600160e01b03198116811461063e575f80fd5b5f60208284031215610f59575f80fd5b8135610f6481610f34565b9392505050565b5f5b83811015610f85578181015183820152602001610f6d565b50505f910152565b5f8151808452610fa4816020860160208601610f6b565b601f01601f19169290920160200192915050565b602081525f610f646020830184610f8d565b5f60208284031215610fda575f80fd5b5035919050565b80356001600160a01b0381168114610ff7575f80fd5b919050565b5f806040838503121561100d575f80fd5b61101683610fe1565b946020939093013593505050565b5f60208284031215611034575f80fd5b610f6482610fe1565b5f805f6060848603121561104f575f80fd5b61105884610fe1565b925061106660208501610fe1565b9150604084013590509250925092565b5f8060408385031215611087575f80fd5b61109083610fe1565b9150602083013580151581146110a4575f80fd5b809150509250929050565b634e487b7160e01b5f52604160045260245ffd5b5f805f80608085870312156110d6575f80fd5b6110df85610fe1565b93506110ed60208601610fe1565b925060408501359150606085013567ffffffffffffffff80821115611110575f80fd5b818701915087601f830112611123575f80fd5b813581811115611135576111356110af565b604051601f8201601f19908116603f0116810190838211818310171561115d5761115d6110af565b816040528281528a6020848701011115611175575f80fd5b826020860160208301375f60208483010152809550505050505092959194509250565b5f80604083850312156111a9575f80fd5b6111b283610fe1565b91506111c060208401610fe1565b90509250929050565b600181811c908216806111dd57607f821691505b6020821081036111fb57634e487b7160e01b5f52602260045260245ffd5b50919050565b634e487b7160e01b5f52601160045260245ffd5b5f6001820161122657611226611201565b5060010190565b5f815161123e818560208601610f6b565b9290920192915050565b7f3c7376672077696474683d2234303022206865696768743d223235302220786d81527f6c6e733d22687474703a2f2f7777772e77332e6f72672f323030302f737667226020820152601f60f91b60408201527f3c726563742077696474683d223130302522206865696768743d22313030252260418201527f2066696c6c3d2223316131613161222072783d223135222f3e0000000000000060618201527f3c7465787420783d2233302220793d223530222066696c6c3d22234646443730607a8201527f302220666f6e742d66616d696c793d22417269616c2220666f6e742d73697a65609a8201527f3d2232342220666f6e742d7765696768743d22626f6c64223e4c424a2042414e60ba82015267259e17ba32bc3a1f60c11b60da8201527f3c7465787420783d2233302220793d223930222066696c6c3d2277686974652260e28201527f20666f6e742d66616d696c793d22417269616c2220666f6e742d73697a653d226101028201527f3136223e4558434c5553495645204d454d424552534849503c2f746578743e006101228201527f3c7265637420783d2233302220793d22313230222077696474683d22333430226101418201527f206865696768743d2231222066696c6c3d2223343434222f3e000000000000006101618201527f3c7465787420783d2233302220793d22323130222066696c6c3d22233838382261017a8201527f20666f6e742d66616d696c793d22436f75726965722220666f6e742d73697a6561019a8201526a3d223132223e49443a202360a81b6101ba8201525f610f646114fc6114ba6114a76101c586018761122d565b661e17ba32bc3a1f60c91b815260070190565b7f3c636972636c652063783d22333530222063793d2235302220723d223130222081526f3334b6361e9111a323221b981811179f60811b602082015260300190565b651e17b9bb339f60d11b815260060190565b7f7b226e616d65223a20224c424a20456c697465204d656d62657220230000000081525f835161154581601c850160208801610f6b565b6201116160ed1b601c918401918201527f226465736372697074696f6e223a20224f6666696369616c206f6e2d63686169601f8201527f6e206d656d6265727368697020666f7220746865204c424a2042616e6b206563603f8201526a037b9bcb9ba32b6971116160ad1b605f8201527f22696d616765223a2022646174613a696d6167652f7376672b786d6c3b626173606a82015263194d8d0b60e21b608a82015283516115fb81608e840160208801610f6b565b61227d60f01b608e9290910191820152609001949350505050565b7f646174613a6170706c69636174696f6e2f6a736f6e3b6261736536342c00000081525f825161164d81601d850160208701610f6b565b91909101601d0192915050565b6001600160a01b03858116825284166020820152604081018390526080606082018190525f9061168c90830184610f8d565b9695505050505050565b5f602082840312156116a6575f80fd5b8151610f6481610f34565b808201808211156102f1576102f1611201565b5f826116de57634e487b7160e01b5f52601260045260245ffd5b500490565b80820281158282048414176102f1576102f161120156fea2646970667358221220fd6cd39713bdab9333542162f8c55b7550eec66dcb7edfdf973ac6dce99a1b1f64736f6c63430008180033",
  "linkReferences": {},
  "deployedLinkReferences": {},
  "immutableReferences": {},
  "inputSourceName": "project/contracts/LBJMembership.sol",
  "buildInfoId": "solc-0_8_24-7512a907f87b08b567b7b57ffc27161b789cc47a"
}