{
  "_format": "hh3-artifact-1",
  "contractName": "Wallet",
  "sourceName": "contracts/wallet.sol",
  "abi": [
    {
      "inputs": [],
      "stateMutability": "nonpayable",
      "type": "constructor"
    },
    {
      "anonymous": false,
      "inputs": [
        {
          "indexed": true,
          "internalType": "address",
          "name": "user",
          "type": "address"
        },
        {
          "indexed": false,
          "internalType": "uint256",
          "name": "amount",
          "type": "uint256"
        }
      ],
      "name": "Deposit",
      "type": "event"
    },
    {
      "anonymous": false,
      "inputs": [
        {
          "indexed": true,
          "internalType": "address",
          "name": "owner",
          "type": "address"
        },
        {
          "indexed": false,
          "internalType": "uint256",
          "name": "amount",
          "type": "uint256"
        }
      ],
      "name": "FeesWithdrawn",
      "type": "event"
    },
    {
      "anonymous": false,
      "inputs": [
        {
          "indexed": true,
          "internalType": "address",
          "name": "user",
          "type": "address"
        },
        {
          "indexed": false,
          "internalType": "uint256",
          "name": "amount",
          "type": "uint256"
        }
      ],
      "name": "Withdrawal",
      "type": "event"
    },
    {
      "inputs": [],
      "name": "SERVICE_FEE_PERCENT",
      "outputs": [
        {
          "internalType": "uint256",
          "name": "",
          "type": "uint256"
        }
      ],
      "stateMutability": "view",
      "type": "function"
    },
    {
      "inputs": [
        {
          "internalType": "address",
          "name": "",
          "type": "address"
        }
      ],
      "name": "balances",
      "outputs": [
        {
          "internalType": "uint256",
          "name": "",
          "type": "uint256"
        }
      ],
      "stateMutability": "view",
      "type": "function"
    },
    {
      "inputs": [],
      "name": "deposit",
      "outputs": [],
      "stateMutability": "payable",
      "type": "function"
    },
    {
      "inputs": [
        {
          "internalType": "address",
          "name": "_user",
          "type": "address"
        }
      ],
      "name": "getBalance",
      "outputs": [
        {
          "internalType": "uint256",
          "name": "",
          "type": "uint256"
        }
      ],
      "stateMutability": "view",
      "type": "function"
    },
    {
      "inputs": [],
      "name": "owner",
      "outputs": [
        {
          "internalType": "address",
          "name": "",
          "type": "address"
        }
      ],
      "stateMutability": "view",
      "type": "function"
    },
    {
      "inputs": [
        {
          "internalType": "uint256",
          "name": "_amount",
          "type": "uint256"
        }
      ],
      "name": "withdraw",
      "outputs": [],
      "stateMutability": "nonpayable",
      "type": "function"
    },
    {
      "inputs": [],
      "name": "withdrawFees",
      "outputs": [],
      "stateMutability": "nonpayable",
      "type": "function"
    },
    {
      "stateMutability": "payable",
      "type": "receive"
    }
  ],
  "bytecode": "0x608060405234801561000f575f80fd5b50600180546001600160a01b031916331790556106858061002f5f395ff3fe608060405260043610610071575f3560e01c8063476343ee1161004c578063476343ee146101475780638da5cb5b1461015b578063d0e30db014610192578063f8b2cb4f1461019a575f80fd5b806304d87f39146100d457806327e235e3146100fb5780632e1a7d4d14610126575f80fd5b366100d057335f90815260208190526040812080543492906100949084906105a9565b909155505060405134815233907fe1fffcc4923d04b559f4d29a8bfc6cda04eb5b0d3c460751c2402c5c5cc9109c9060200160405180910390a2005b5f80fd5b3480156100df575f80fd5b506100e8600181565b6040519081526020015b60405180910390f35b348015610106575f80fd5b506100e86101153660046105c2565b5f6020819052908152604090205481565b348015610131575f80fd5b506101456101403660046105ef565b6101ce565b005b348015610152575f80fd5b50610145610397565b348015610166575f80fd5b5060015461017a906001600160a01b031681565b6040516001600160a01b0390911681526020016100f2565b6101456104de565b3480156101a5575f80fd5b506100e86101b43660046105c2565b6001600160a01b03165f9081526020819052604090205490565b5f81116102335760405162461bcd60e51b815260206004820152602860248201527f5769746864726177616c20616d6f756e74206d75737420626520677265617465604482015267072207468616e20360c41b60648201526084015b60405180910390fd5b335f908152602081905260409020548111156102885760405162461bcd60e51b8152602060048201526014602482015273496e73756666696369656e742062616c616e636560601b604482015260640161022a565b5f6064610296600184610606565b6102a0919061061d565b90505f6102ad828461063c565b335f908152602081905260408120805492935085929091906102d090849061063c565b90915550506040515f90339083908381818185875af1925050503d805f8114610314576040519150601f19603f3d011682016040523d82523d5f602084013e610319565b606091505b505090508061035c5760405162461bcd60e51b815260206004820152600f60248201526e151c985b9cd9995c8819985a5b1959608a1b604482015260640161022a565b60405184815233907f7fcf532c15f0a6db0bd6d0e038bea71d30d808c7d98cb3bf7268a95bf5081b659060200160405180910390a250505050565b6001546001600160a01b031633146103fc5760405162461bcd60e51b815260206004820152602260248201527f4f6e6c79207468652073657276696365206f776e65722063616e20646f207468604482015261697360f01b606482015260840161022a565b60015460405147915f916001600160a01b039091169083908381818185875af1925050503d805f811461044a576040519150601f19603f3d011682016040523d82523d5f602084013e61044f565b606091505b50509050806104985760405162461bcd60e51b8152602060048201526015602482015274119959481dda5d1a191c985dd85b0819985a5b1959605a1b604482015260640161022a565b6001546040518381526001600160a01b03909116907fc0819c13be868895eb93e40eaceb96de976442fa1d404e5c55f14bb65a8c489a9060200160405180910390a25050565b5f341161053b5760405162461bcd60e51b815260206004820152602560248201527f4465706f73697420616d6f756e74206d75737420626520677265617465722074604482015264068616e20360dc1b606482015260840161022a565b335f90815260208190526040812080543492906105599084906105a9565b909155505060405134815233907fe1fffcc4923d04b559f4d29a8bfc6cda04eb5b0d3c460751c2402c5c5cc9109c9060200160405180910390a2565b634e487b7160e01b5f52601160045260245ffd5b808201808211156105bc576105bc610595565b92915050565b5f602082840312156105d2575f80fd5b81356001600160a01b03811681146105e8575f80fd5b9392505050565b5f602082840312156105ff575f80fd5b5035919050565b80820281158282048414176105bc576105bc610595565b5f8261063757634e487b7160e01b5f52601260045260245ffd5b500490565b818103818111156105bc576105bc61059556fea2646970667358221220b9ccabd0470d887da1bcb974b50577578461a86482d722e0d556fb83e2a2bf0564736f6c63430008140033",
  "linkReferences": {},
  "deployedLinkReferences": {},
  "immutableReferences": {},
  "inputSourceName": "project/contracts/wallet.sol",
  "buildInfoId": "solc-0_8_20-56c9bac34c4ee4f7b263d5441aab2d5695cdebbe"
}