{
  "_format": "hh3-artifact-1",
  "contractName": "Wallet",
  "sourceName": "contracts/wallet.sol",
  "abi": [
    {
      "inputs": [
        {
          "internalType": "address",
          "name": "_nftAddress",
          "type": "address"
        },
        {
          "internalType": "address",
          "name": "_rewardTokenAddress",
          "type": "address"
        }
      ],
      "stateMutability": "nonpayable",
      "type": "constructor"
    },
    {
      "anonymous": false,
      "inputs": [
        {
          "indexed": true,
          "internalType": "address",
          "name": "user",
          "type": "address"
        },
        {
          "indexed": false,
          "internalType": "uint256",
          "name": "amount",
          "type": "uint256"
        }
      ],
      "name": "Deposit",
      "type": "event"
    },
    {
      "anonymous": false,
      "inputs": [
        {
          "indexed": true,
          "internalType": "address",
          "name": "user",
          "type": "address"
        },
        {
          "indexed": false,
          "internalType": "uint256",
          "name": "amount",
          "type": "uint256"
        }
      ],
      "name": "RewardsClaimed",
      "type": "event"
    },
    {
      "anonymous": false,
      "inputs": [
        {
          "indexed": true,
          "internalType": "address",
          "name": "user",
          "type": "address"
        },
        {
          "indexed": false,
          "internalType": "uint256",
          "name": "amount",
          "type": "uint256"
        }
      ],
      "name": "Staked",
      "type": "event"
    },
    {
      "anonymous": false,
      "inputs": [
        {
          "indexed": true,
          "internalType": "address",
          "name": "user",
          "type": "address"
        },
        {
          "indexed": false,
          "internalType": "uint256",
          "name": "amount",
          "type": "uint256"
        }
      ],
      "name": "Withdrawal",
      "type": "event"
    },
    {
      "inputs": [],
      "name": "REWARD_RATE_PER_HOUR",
      "outputs": [
        {
          "internalType": "uint256",
          "name": "",
          "type": "uint256"
        }
      ],
      "stateMutability": "view",
      "type": "function"
    },
    {
      "inputs": [],
      "name": "SERVICE_FEE_PERCENT",
      "outputs": [
        {
          "internalType": "uint256",
          "name": "",
          "type": "uint256"
        }
      ],
      "stateMutability": "view",
      "type": "function"
    },
    {
      "inputs": [
        {
          "internalType": "address",
          "name": "",
          "type": "address"
        }
      ],
      "name": "balances",
      "outputs": [
        {
          "internalType": "uint256",
          "name": "",
          "type": "uint256"
        }
      ],
      "stateMutability": "view",
      "type": "function"
    },
    {
      "inputs": [],
      "name": "claimMembership",
      "outputs": [],
      "stateMutability": "nonpayable",
      "type": "function"
    },
    {
      "inputs": [],
      "name": "claimRewards",
      "outputs": [],
      "stateMutability": "nonpayable",
      "type": "function"
    },
    {
      "inputs": [],
      "name": "deposit",
      "outputs": [],
      "stateMutability": "payable",
      "type": "function"
    },
    {
      "inputs": [
        {
          "internalType": "address",
          "name": "_user",
          "type": "address"
        }
      ],
      "name": "getBalance",
      "outputs": [
        {
          "internalType": "uint256",
          "name": "",
          "type": "uint256"
        }
      ],
      "stateMutability": "view",
      "type": "function"
    },
    {
      "inputs": [],
      "name": "nftContract",
      "outputs": [
        {
          "internalType": "contract LBJMembership",
          "name": "",
          "type": "address"
        }
      ],
      "stateMutability": "view",
      "type": "function"
    },
    {
      "inputs": [],
      "name": "owner",
      "outputs": [
        {
          "internalType": "address",
          "name": "",
          "type": "address"
        }
      ],
      "stateMutability": "view",
      "type": "function"
    },
    {
      "inputs": [],
      "name": "rewardToken",
      "outputs": [
        {
          "internalType": "contract LBJToken",
          "name": "",
          "type": "address"
        }
      ],
      "stateMutability": "view",
      "type": "function"
    },
    {
      "inputs": [],
      "name": "stake",
      "outputs": [],
      "stateMutability": "payable",
      "type": "function"
    },
    {
      "inputs": [
        {
          "internalType": "address",
          "name": "",
          "type": "address"
        }
      ],
      "name": "stakingTimestamp",
      "outputs": [
        {
          "internalType": "uint256",
          "name": "",
          "type": "uint256"
        }
      ],
      "stateMutability": "view",
      "type": "function"
    },
    {
      "inputs": [
        {
          "internalType": "uint256",
          "name": "_amount",
          "type": "uint256"
        }
      ],
      "name": "withdraw",
      "outputs": [],
      "stateMutability": "nonpayable",
      "type": "function"
    },
    {
      "stateMutability": "payable",
      "type": "receive"
    }
  ],
  "bytecode": "0x608060405234801561000f575f80fd5b50604051610ae0380380610ae083398101604081905261002e91610085565b600280546001600160a01b03199081163317909155600380546001600160a01b03948516908316179055600480549290931691161790556100b6565b80516001600160a01b0381168114610080575f80fd5b919050565b5f8060408385031215610096575f80fd5b61009f8361006a565b91506100ad6020840161006a565b90509250929050565b610a1d806100c35f395ff3fe6080604052600436106100c2575f3560e01c80638da5cb5b1161007c578063d0e30db011610057578063d0e30db0146101ec578063d56d229d146101f4578063f7c618c114610213578063f8b2cb4f14610232575f80fd5b80638da5cb5b146101765780638f0794fe146101ad578063c6132bf3146101d8575f80fd5b806304d87f39146100d557806327e235e3146100fc5780632e1a7d4d146101275780632f6874b214610146578063372500ab1461015a5780633a4b66f11461016e575f80fd5b366100d1576100cf610266565b005b5f80fd5b3480156100e0575f80fd5b506100e9600181565b6040519081526020015b60405180910390f35b348015610107575f80fd5b506100e9610116366004610916565b5f6020819052908152604090205481565b348015610132575f80fd5b506100cf610141366004610943565b610323565b348015610151575f80fd5b506100cf6104f0565b348015610165575f80fd5b506100cf61065b565b6100cf61070c565b348015610181575f80fd5b50600254610195906001600160a01b031681565b6040516001600160a01b0390911681526020016100f3565b3480156101b8575f80fd5b506100e96101c7366004610916565b60016020525f908152604090205481565b3480156101e3575f80fd5b506100e9600a81565b6100cf610266565b3480156101ff575f80fd5b50600354610195906001600160a01b031681565b34801561021e575f80fd5b50600454610195906001600160a01b031681565b34801561023d575f80fd5b506100e961024c366004610916565b6001600160a01b03165f9081526020819052604090205490565b5f34116102c85760405162461bcd60e51b815260206004820152602560248201527f4465706f73697420616d6f756e74206d75737420626520677265617465722074604482015264068616e20360dc1b60648201526084015b60405180910390fd5b335f90815260208190526040812080543492906102e690849061096e565b909155505060405134815233907fe1fffcc4923d04b559f4d29a8bfc6cda04eb5b0d3c460751c2402c5c5cc9109c906020015b60405180910390a2565b5f81116103835760405162461bcd60e51b815260206004820152602860248201527f5769746864726177616c20616d6f756e74206d75737420626520677265617465604482015267072207468616e20360c41b60648201526084016102bf565b335f908152602081905260409020548111156103d85760405162461bcd60e51b8152602060048201526014602482015273496e73756666696369656e742062616c616e636560601b60448201526064016102bf565b6103e1336107ee565b5f60646103ef600184610987565b6103f9919061099e565b90505f61040682846109bd565b335f908152602081905260408120805492935085929091906104299084906109bd565b90915550506040515f90339083908381818185875af1925050503d805f811461046d576040519150601f19603f3d011682016040523d82523d5f602084013e610472565b606091505b50509050806104b55760405162461bcd60e51b815260206004820152600f60248201526e151c985b9cd9995c8819985a5b1959608a1b60448201526064016102bf565b60405184815233907f7fcf532c15f0a6db0bd6d0e038bea71d30d808c7d98cb3bf7268a95bf5081b659060200160405180910390a250505050565b335f9081526020819052604090205467016345785d8a000011156105565760405162461bcd60e51b815260206004820152601d60248201527f526571756972657320302e312045544820696e204c424a205661756c7400000060448201526064016102bf565b6003546040516370a0823160e01b81523360048201526001600160a01b03909116906370a0823190602401602060405180830381865afa15801561059c573d5f803e3d5ffd5b505050506040513d601f19601f820116820180604052508101906105c091906109d0565b156106015760405162461bcd60e51b8152602060048201526011602482015270416c72656164792061206d656d6265722160781b60448201526064016102bf565b600354604051630551c0b960e11b81523360048201526001600160a01b0390911690630aa38172906024015f604051808303815f87803b158015610643575f80fd5b505af1158015610655573d5f803e3d5ffd5b50505050565b335f908152602081905260409020546106a65760405162461bcd60e51b815260206004820152600d60248201526c139bc8115512081cdd185ad959609a1b60448201526064016102bf565b335f908152600160205260409020546107015760405162461bcd60e51b815260206004820152601760248201527f5374616b696e67206e6f7420696e697469616c697a656400000000000000000060448201526064016102bf565b61070a336107ee565b565b5f34116107505760405162461bcd60e51b8152602060048201526012602482015271086c2dcdcdee840e6e8c2d6ca4060408aa8960731b60448201526064016102bf565b335f908152602081905260409020541580159061077a5750335f9081526001602052604090205415155b1561078857610788336107ee565b335f90815260208190526040812080543492906107a690849061096e565b9091555050335f8181526001602052604090819020429055517f9e71bc8eea02a63969f509818f2dafb9254532904319f9dbda79b67bd34a5f3d906103199034815260200190565b6001600160a01b0381165f9081526001602052604081205461081090426109bd565b90508015610912576001600160a01b0382165f90815260208190526040812054610e1090600a90610842908590610987565b61084c9190610987565b610856919061099e565b6001600160a01b038481165f81815260016020526040908190204290556004805491516340c10f1960e01b815290810192909252602482018490529293509116906340c10f19906044015f604051808303815f87803b1580156108b7575f80fd5b505af11580156108c9573d5f803e3d5ffd5b50505050826001600160a01b03167ffc30cddea38e2bf4d6ea7d3f9ed3b6ad7f176419f4963bd81318067a4aee73fe8260405161090891815260200190565b60405180910390a2505b5050565b5f60208284031215610926575f80fd5b81356001600160a01b038116811461093c575f80fd5b9392505050565b5f60208284031215610953575f80fd5b5035919050565b634e487b7160e01b5f52601160045260245ffd5b808201808211156109815761098161095a565b92915050565b80820281158282048414176109815761098161095a565b5f826109b857634e487b7160e01b5f52601260045260245ffd5b500490565b818103818111156109815761098161095a565b5f602082840312156109e0575f80fd5b505191905056fea264697066735822122095d98bfc9aa3422f34d7b8ce0d6de8d8308450047366c5e84d278da2cd9249a964736f6c63430008180033",
  "linkReferences": {},
  "deployedLinkReferences": {},
  "immutableReferences": {},
  "inputSourceName": "project/contracts/wallet.sol",
  "buildInfoId": "solc-0_8_24-e11fd67f0a29b8a381ece0061f0f5489c1d13a11"
}